:100000000C949F000C94C7000C94C7000C94C7007C
:100010000C94C7000C94C7000C94C7000C94820782
:100020000C94C7000C94C7000C94C7000C94C70034
:100030000C94C7000C94C7000C94C7000C94C70024
:100040000C9438070C94C7000C94C7000C94C7009C
:100050000C94C7000C94C7000C94C7000C94C70004
:100060000C94C7000C94C70008000000BE922449FD
:10007000123EABAAAA2ABECDCCCC4C3E00000080DA
:10008000BEABAAAAAA3E00000000BF000000803F4D
:100090000000000000084178D3BB4387D1133D190D
:1000A0000E3CC3BD4282AD2B3E68EC8276BED98F3A
:1000B000E1A93E4C80EFFFBE01C4FF7F3F0000007E
:1000C000000007634236B79BD8A71A39685618AEA6
:1000D000BAAB558C1D3CB7CC5763BD6DEDFD753E7D
:1000E000F6177231BF000000803F000000002400BE
:1000F00027002A0000000008000201000003040796
:1001000000000000000000000102040810204080F0
:100110000102040810200102040810200000000061
:10012000250028002B000404040404040404020233
:10013000020202020303030303030200E509112480
:100140001FBECFEFD8E0DEBFCDBF11E0A0E0B1E031
:10015000E6E0FFE102C005900D92A032B107D9F7A9
:1001600021E0A0E2B1E001C01D92A935B207E1F79C
:1001700010E0CFE9D0E004C02197FE010E948A0A76
:10018000CE39D107C9F70E94DE070C94810F0C9479
:100190000000089590E0FC01EC50FF4F2491FC0119
:1001A000E85FFE4F3491FC01EA5DFE4FE491EE23DF
:1001B00009F43CC0222339F1233091F038F4213086
:1001C000A9F0223001F584B58F7D12C0273091F05F
:1001D0002830A1F02430B9F4809180008F7D03C0D5
:1001E000809180008F77809380000DC084B58F77D9
:1001F00084BD09C08091B0008F7703C08091B000AA
:100200008F7D8093B000F0E0EE0FFF1FE45EFE4FA5
:10021000A591B4919FB7F894611104C08C91309569
:10022000382302C0EC913E2B3C939FBF0895CF939F
:10023000DF9390E0FC01E85FFE4F2491FC01EA5D52
:10024000FE4F8491882361F190E0880F991FFC0193
:10025000E651FF4FC591D491FC01E45EFE4FA5919C
:10026000B491611109C09FB7F894888120958223C9
:100270008883EC912E230BC0623061F49FB7F89411
:100280008881322F309583238883EC912E2B2C93F9
:100290009FBF06C08FB7F894E8812E2B28838FBFAD
:1002A000DF91CF9108958E3008F08E502091120189
:1002B00090E4299F900111248770822B80937C0009
:1002C00080917A00806480937A0080917A0086FD24
:1002D000FCCF809178002091790090E0922B0895D6
:1002E0003FB7F8948091270190912801A0912901AE
:1002F000B0912A0126B5A89B05C02F3F19F00196A1
:10030000A11DB11D3FBFBA2FA92F982F8827820F9B
:10031000911DA11DB11DBC01CD0143E0660F771FEA
:10032000881F991F4A95D1F708958F929F92AF9297
:10033000BF92CF92DF92EF92FF926B017C010E94FD
:1003400070014B015C01C114D104E104F104F1F02E
:100350000E947001DC01CB0188199909AA09BB0927
:10036000883E9340A105B10570F321E0C21AD1087F
:10037000E108F10888EE880E83E0981EA11CB11CEC
:10038000C114D104E104F10419F7DDCFFF90EF901F
:10039000DF90CF90BF90AF909F908F9008959091F5
:1003A0001301891324C0EAE3F1E0E4919FEF9093F5
:1003B0001301E130B9F098F0E230C9F49091700087
:1003C0009D7F9093700091E09093B0009091B10068
:1003D000987F94609093B1001092B30008C010927F
:1003E0006E0005C090916F009D7F90936F0060E05C
:1003F0000C94CA004F925F926F927F928F929F925D
:10040000AF92BF92CF92DF92EF92FF92CF93DF93A2
:1004100000D000D0CDB7DEB79A8389836A017B0113
:10042000DC0112964D905D906D907C9015979A012D
:10043000AB01C301B2010E945C0C18160CF03FC066
:10044000E981FA8186849784A088B1888285938522
:10045000A485B58589839A83AB83BC83A501940168
:10046000BC01CD010E94900AA70196010E94B90C1F
:100470006B017C0120E030E0A901C501B4010E94BC
:10048000B90C9B01AC01C701B6010E94910A6B0136
:100490007C0129813A814B815C81C301B2010E94B8
:1004A000B90C9B01AC01C701B6010E94900A6B0117
:1004B0007C01A301920160E070E0CB0190C0A70134
:1004C0009601C301B2010E94FD0AE981FA8186808A
:1004D0009780A084B18418160CF445C0A50194013E
:1004E000C701B6010E94FD0A1816ECF1A981BA8174
:1004F0001E968D919D910D90BC91A02D89839A831C
:10050000AB83BC839C01AD01BC01CD010E94900A6C
:10051000A70196010E94B90C6B017C0129813A81E7
:100520004B815C81C301B2010E94B90C9B01AC01FB
:10053000C701B6010E94910A6B017C0129813A81B1
:100540004B815C81C501B4010E94B90C9B01AC01D7
:10055000C701B6010E94900A6B017C01A5019401BC
:10056000C301B2013CC0A5019401C701B6010E94BC
:100570005C0C1816ECF5E981FA814288538864888E
:10058000758886859785A089B18989839A83AB838D
:10059000BC83A3019201BC01CD010E94900AA70176
:1005A00096010E94B90C6B017C01A3019201C50167
:1005B000B4010E94B90C9B01AC01C701B6010E94B5
:1005C000910A29813A814B815C810E94900A6B01DA
:1005D0007C0120E030E040E85FE3C501B4010E9407
:1005E000900A9B01AC01C701B6010E94020B03C037
:1005F00060E070E0CB010F900F900F900F90DF91B3
:10060000CF91FF90EF90DF90CF90BF90AF909F90F1
:100610008F907F906F905F904F9008954F925F9270
:100620006F927F928F929F92AF92BF92CF92DF9202
:10063000EF92FF92CF93DF93CDB7DEB72A970FB635
:10064000F894DEBF0FBECDBF282F30E0220F331F3E
:100650002F5B3E4F3A87298780913F010E945301CB
:10066000BC01990F880B990B0E94AC0B4B015C01EC
:1006700080913F010E945301BC01990F880B990B97
:100680000E94AC0B2B013C01A50194010E94020BBE
:100690009B01AC0160E070E080E89FE30E94900A5B
:1006A0006B017C0120E030E0A9010E945C0C18166F
:1006B00024F0F7FAF094F7F8F09420E030E0A90184
:1006C000C501B4010E94910A0E947B0B0E94AA0BF3
:1006D000A30192010E94910A0E947B0B4B015C01D5
:1006E00082E0482E512C612C712C2AE037ED43EA30
:1006F0005CE3C701B6010E945C0C18160CF055C0F3
:1007000080913F010E945301BC01990F880B990B06
:100710000E94AC0B69837A838B839C8380913F0119
:100720000E945301BC01990F880B990B0E94AC0BDE
:100730006D837E838F83988729813A814B815C8189
:100740000E94020B9B01AC0160E070E080E89FE337
:100750000E94900A6B017C0120E030E0A9010E9418
:100760005C0C181624F0F7FAF094F7F8F094C50131
:10077000B4010E94AA0B29813A814B815C810E94BD
:10078000910A0E947B0B0E94AA0B2D813E814F8112
:1007900058850E94910A0E947B0B4B015C013FEF40
:1007A000431A530A630A730AA0CFC501B401A30117
:1007B00092010E94350AA985BA85ED91FC9182814A
:1007C0009381A481B5812817390708F445CFA21772
:1007D000B30708F441CF2A960FB6F894DEBF0FBED8
:1007E000CDBFDF91CF91FF90EF90DF90CF90BF9082
:1007F000AF909F908F907F906F905F904F900895F3
:10080000CF93C82F682F87E00E94CA006C2F84E026
:100810000E94CA006C2F85E00E94CA006C2F86E0FF
:100820000E94CA006C2F83E0CF910C94CA00CF9332
:10083000C82F60E00E94CA0061E08C2F0E94CA00AD
:100840006EEE72E080E090E00E94950160E08C2FF7
:10085000CF910C94CA00CF93DF93D82FC62F61E0BD
:100860008C2F0E94CA008D2F0E940E0360E08C2FF7
:10087000DF91CF910C94CA00CF92DF92EF92FF925A
:10088000CF93DF93FC01C080D180E280F38086E0CB
:1008900090E00E945B0EDC0189EC90E011969C9345
:1008A0008E931296CD92DD92ED92FC921597CFE346
:1008B000D1E09981E92FF0E0EE0FFF1FEF5BFE4FD3
:1008C000B183A0839F5F9983DF91CF91FF90EF90D9
:1008D000DF90CF9008954F925F926F927F928F92A8
:1008E0009F92AF92BF92CF92DF92EF92FF92CF93FF
:1008F00049015A019CE0699F800D1124682F70E026
:1009000080E090E00E94AA0B9B01AC016DE77CE9BE
:1009100087E89FE30E94260D20913E0121110DC220
:100920002DEC3CEC42E851E40E94B90C2DEC3CEC7F
:1009300042E851E40E94020B0E94610C29ED30E86C
:100940004DEC5CE30E94020B6B017C0120E030E087
:10095000A9010E945C0C20E030E040E05FE387FDED
:1009600005C0C701B6010E94910A04C0C701B601C3
:100970000E94900A0E94740B262F3CE0862F632F62
:100980000E94150A492F822F90E0841B91096CE088
:1009900070E00E94210A80913D01840F369F800DF6
:1009A0001124632F0E94150A692F839F600D112463
:1009B00070E080E090E00E94AA0B9B01AC016DE723
:1009C0007CE987E89FE30E94260D2DEC3CEC42E891
:1009D00051E40E94B90C6B017C0120E030E0A901D8
:1009E0000E945C0C20E030E040E05FE387FD05C042
:1009F000C701B6010E94910A04C0C701B6010E9456
:100A0000900A0E94740B6B0180913C01909113013C
:100A1000891721F09F3F09F090C104C0EAE3F1E09B
:100A2000C49179C080931301EAE3F1E0C491CF3F10
:100A300009F483C1C13009F448C050F1C23009F053
:100A40006AC01092B0001092B1009091B000926014
:100A50009093B0009091B10091609093B100282FD5
:100A600030E0F901EA5DFE4FE491F0E0EE0FFF1F88
:100A7000E45EFE4F4591549150932D0140932C011B
:100A8000F901E85FFE4FE491E0932B01C2E0EAC177
:100A900014BC15BC94B5926094BD95B5916095BD9C
:100AA000282F30E0F901EA5DFE4FE491F0E0EE0F0F
:100AB000FF1FE45EFE4F45915491F901E85FFE4F40
:100AC000E491E0932F01C0E0CDC11092800010921C
:100AD00081009091810098609093810090918100B5
:100AE000916090938100282F30E0F901EA5DFE4F7C
:100AF000E491F0E0EE0FFF1FE45EFE4F459154914C
:100B0000F901E85FFE4FE491E0932E0161E00E945D
:100B10001701C1E0A3C0C7FD10C161E00E94170129
:100B20008C2F8D7F09F09AC0E12CF12C60E079E0E8
:100B30008DE390E0A70196010E94570A29013A012E
:100B4000BA01A90141505109610971094F3F51058D
:100B50006105710509F008F445C060E271EA87E0BB
:100B600090E0A70196010E94570ABA01A9014150DD
:100B7000510961097109C230E9F44F3F510561051E
:100B8000710509F008F40EC168E478EE81E090E0A8
:100B9000A70196010E94570ABA01A90141505109C3
:100BA000610971094F3F51056105710509F020F593
:100BB00083E04DC04F3F510561057105A9F0A0F0DC
:100BC00064E274EF80E090E0A70196010E94570A6A
:100BD000BA01A9014150510961097109CC2309F4F5
:100BE000E3C038C181E001C082E0C11130C095B5D9
:100BF000987F892B85BD68C064E274EF80E090E047
:100C0000A70196010E94570ABA01A9014150510952
:100C1000610971094F3F51056105710509F008F43B
:100C2000BFC062E17AE780E090E0A70196010E94F0
:100C3000570ABA01A90141505109610971094F3F91
:100C400051056105710511F008F0DDC085E0909156
:100C5000B100987F892B8093B10030C0E12CF12C3A
:100C600060E079E08DE390E0A70196010E94570AC9
:100C7000BA01A90141505109610971094115510594
:100C800081E06807710580F064E274EF80E090E035
:100C9000A70196010E94570ABA01A90141505109C2
:100CA0006109710983E001C081E0C13039F490919C
:100CB0008100987F892B8093810018C0C130B1F0EA
:100CC000C23049F1C11139C047BD8FEF9FEFDC0140
:100CD0008093380190933901A0933A01B0933B017E
:100CE00080916E00826080936E0027C050938900CF
:100CF000409388008FEF9FEFDC0180933401909345
:100D00003501A0933601B093370180916F00826066
:100D100080936F0012C04093B3008FEF9FEFDC0110
:100D20008093300190933101A0933201B09333014D
:100D30008091700082608093700020E030E04AE78C
:100D400054E4C501B4010E94B90C6B017C0120E0A0
:100D500030E0A9010E945C0C20E030E040E05FE35D
:100D600087FD05C0C701B6010E94910A04C0C701F2
:100D7000B6010E94900A0E94740B0E949501809116
:100D80003C01CF91FF90EF90DF90CF90BF90AF905C
:100D90009F908F907F906F905F904F900C94CF01B9
:100DA00084E055CF82E053CF4F3F51056105710577
:100DB00041F138F169E07DE380E090E0A701960120
:100DC0000E94570ABA01A9014150510961097109EC
:100DD0004F3F51056105710591F088F0D301C201C3
:100DE0003AE0B595A795979587953A95D1F7AC01D7
:100DF000BD01415051096109710985E0F8CE84E0D7
:100E0000F6CE83E0F4CE69E07DE380E090E0A701D8
:100E100096010E94570ABA01A9014150510961097E
:100E200071094F3F51056105710591F088F0D301BB
:100E3000C2012AE0B595A795979587952A95D1F790
:100E4000AC01BD01415051096109710987E0FFCE34
:100E500086E0FDCE4F3F51056105710509F098F61A
:100E600084E0C3CE61E00E9417015ECE0E947C0F39
:100E70001F920F920FB60F9211242F933F938F93CF
:100E80009F93AF93BF938091230190912401A091F0
:100E90002501B09126013091220126E0230F2D3744
:100EA00020F40296A11DB11D05C029E8230F039669
:100EB000A11DB11D20932201809323019093240151
:100EC000A0932501B09326018091270190912801DC
:100ED000A0912901B0912A010196A11DB11D809315
:100EE000270190932801A0932901B0932A01BF9173
:100EF000AF919F918F913F912F910F900FBE0F90C7
:100F00001F9018951F920F920FB60F9211242F93D6
:100F10003F934F935F936F937F938F939F93AF9381
:100F2000BF93EF93FF938091300190913101A09195
:100F30003201B0913301892B8A2B8B2B51F1909187
:100F40002B01E0912C01F0912D0180818927808374
:100F50008091300190913101A0913201B091330123
:100F6000181619061A061B06C4F4809130019091D8
:100F70003101A0913201B09133010197A109B1096A
:100F80008093300190933101A0933201B0933301EB
:100F900004C0809113010E94CF01FF91EF91BF9196
:100FA000AF919F918F917F916F915F914F913F9101
:100FB0002F910F900FBE0F901F901895CF93DF9336
:100FC00000D000D0CDB7DEB7789484B5826084BD00
:100FD00084B5816084BD85B5826085BD85B581603D
:100FE00085BD80916E00816080936E0010928100BB
:100FF0008091810082608093810080918100816076
:101000008093810080918000816080938000809136
:10101000B10084608093B1008091B00081608093C2
:10102000B00080917A00846080937A0080917A0089
:10103000826080937A0080917A008E7F80937A001C
:1010400080917A00806880937A001092C10061E0FC
:1010500087E00E94170161E084E00E94170161E0CF
:1010600085E00E94170161E086E00E94170161E0BF
:1010700083E00E94170180E00E94000483E18093D6
:101080003F0160E00E94170186E793E09A8389831D
:1010900088EC93E09C838B83CE0101960E943C04F4
:1010A00080ED92E09A83898382E293E09C838B8334
:1010B000CE0101960E943C048DE792E09A838983D9
:1010C0008FEC92E09C838B83CE0101960E943C04BE
:1010D00083E293E09A83898385E793E09C838B8303
:1010E000CE0101960E943C0489E292E09A838983B2
:1010F0008CE792E09C838B83CE0101960E943C0496
:1011000080E180933C0110923D0161E00E94170153
:1011100080913C010E94CF0110923D018FEF84B974
:101120009091020180910A01892B85B915B861E07F
:1011300081E10E94170181E08093120184E00E9406
:101140000E0387E00E94170484E00E94170485E0E4
:101150000E94170486E00E94170483E00E9417048F
:1011600084E00E940E0367E080E00E942B0464E0AC
:1011700081E00E942B0465E082E00E942B0466E07F
:1011800083E00E942B0463E084E00E942B0468EE5D
:1011900073E080E090E00E94950184E00E940E03DD
:1011A00081E00E94000414E029E23CE54FE05DE3A9
:1011B000612F80E00E946B0429E23CE54FE05DE393
:1011C000612F82E00E946B0429E23CE54FE05DE381
:1011D000612F84E00E946B0429E23CE54FE05DE36F
:1011E000612F85E00E946B0429E23CE54FE05DE35E
:1011F000612F87E00E946B0429E23CE54FE05DE34C
:10120000612F89E00E946B0429E23CE54FE05DE339
:10121000612F8BE00E946B041F5F183029F680E07D
:101220000E94000484E00E940E0381E00E940004FA
:101230000091200110912101812C912C5401839463
:10124000C501B4010E94AA0B20E030E040E85AE357
:101250000E94B90CAB01BC01D801ED91FC91019049
:10126000F081E02DC80109952AE939E949E95FE3F0
:101270000E94B90C9B01AC0160E070E080E89FE344
:101280000E94020B20E030E44CE954E40E94B90CC7
:101290000E947B0B2B013C0128E0322E0E94700142
:1012A0006B017C012091000130E0275F3F4F2770E8
:1012B0003327209300018091010190E00996877007
:1012C000992780930101D901A050BF4FFC01E05044
:1012D000FF4F12962C918285822B85B90E94700156
:1012E000DC01CB018C199D09AE09BF098415950558
:1012F000A605B70578F5A3019201281B390B4A0B07
:101300005B0BCA01B901693E33E0730781059105A2
:10131000B8F028EE33E040E050E00E94350A6B015F
:101320007C01CA01B9010E94950143E0C416D104B1
:1013300088F0CC0CDD1C54E0C51AD108C60108C0E9
:101340006330710538F0660F771F64507109CB0167
:101350000197F1F73A943110A1CF8FEF881A980ACC
:10136000A80AB80A91E0891694E09906A104B1048C
:1013700009F066CF15B880E00E94000484E00E9466
:101380000E0313E081E00E9400042FE832EC45EFE9
:101390005DE367E081E00E946B0480E00E9400044E
:1013A0002DEC3CEC4CEC5DE367E080E00E946B04CC
:1013B000115041F784E00E940E03A0E0B0E0AB2B97
:1013C00009F4BFCE0E940000BCCE10924001ECE3B5
:1013D000F1E01182128286E190E00E945B0EFC0136
:1013E0008EE191E0918380831282138214821582B0
:1013F0008DEC9CECACECBDE386839783A087B18732
:1014000080E090E0A0E8BFE382879387A487B58758
:1014100086879787A08BB18B828B938BA48BB58BA0
:10142000F0932101E09320010895991B79E004C015
:10143000991F961708F0961B881F7A95C9F7809513
:10144000089597FB072E16F4009407D077FD09D076
:101450000E94760A07FC05D03EF4909581959F4F37
:101460000895709561957F4F0895A1E21A2EAA1BE9
:10147000BB1BFD010DC0AA1FBB1FEE1FFF1FA21744
:10148000B307E407F50720F0A21BB30BE40BF50B41
:10149000661F771F881F991F1A9469F760957095CA
:1014A000809590959B01AC01BD01CF010895052E5B
:1014B00097FB1EF400940E946E0A57FD07D00E940D
:1014C000350A07FC03D04EF40C946E0A50954095F3
:1014D000309521953F4F4F4F5F4F089590958095E0
:1014E000709561957F4F8F4F9F4F0895AA1BBB1B2F
:1014F00051E107C0AA1FBB1FA617B70710F0A61B14
:10150000B70B881F991F5A95A9F780959095BC0134
:10151000CD010895EE0FFF1F0590F491E02D099481
:101520005058BB27AA270E94A80A0C94220C0E949C
:10153000140C38F00E941B0C20F039F49F3F19F472
:1015400026F40C94110C0EF4E095E7FB0C940B0CB4
:10155000E92F0E94330C58F3BA1762077307840708
:10156000950720F079F4A6F50C94550C0EF4E0954F
:101570000B2EBA2FA02D0B01B90190010C01CA014D
:10158000A0011124FF27591B99F0593F50F4503EF8
:1015900068F11A16F040A22F232F342F4427585FEA
:1015A000F3CF469537952795A795F0405395C9F702
:1015B0007EF41F16BA0B620B730B840BBAF09150BA
:1015C000A1F0FF0FBB1F661F771F881FC2F70EC059
:1015D000BA0F621F731F841F48F48795779567952C
:1015E000B795F7959E3F08F0B0CF9395880F08F018
:1015F0009927EE0F9795879508950E94E70B08F4B9
:1016000081E008950E94160B0C94220C0E941B0C82
:1016100058F00E94140C40F029F45F3F29F00C941C
:101620000B0C51110C94560C0C94110C0E94330CA1
:1016300068F39923B1F3552391F3951B550BBB2701
:10164000AA2762177307840738F09F5F5F4F220F46
:10165000331F441FAA1FA9F335D00E2E3AF0E0E83D
:1016600032D091505040E695001CCAF72BD0FE2F87
:1016700029D0660F771F881FBB1F2617370748071B
:10168000AB07B0E809F0BB0B802DBF01FF279358D3
:101690005F4F3AF09E3F510578F00C940B0C0C9480
:1016A000560C5F3FE4F3983ED4F3869577956795A3
:1016B000B795F7959F5FC9F7880F911D9695879508
:1016C00097F90895E1E0660F771F881FBB1F621727
:1016D00073078407BA0720F0621B730B840BBA0BE5
:1016E000EE1F88F7E09508950E947B0B6894B11176
:1016F0000C94560C08950E943B0C88F09F5798F06C
:10170000B92F9927B751B0F0E1F0660F771F881F06
:10171000991F1AF0BA95C9F714C0B13091F00E9420
:10172000550CB1E008950C94550C672F782F88273D
:10173000B85F39F0B93FCCF3869577956795B39547
:10174000D9F73EF490958095709561957F4F8F4FB6
:101750009F4F0895E89409C097FB3EF490958095BB
:10176000709561957F4F8F4F9F4F9923A9F0F92F67
:1017700096E9BB279395F695879577956795B795E5
:10178000F111F8CFFAF4BB0F11F460FF1BC06F5FCB
:101790007F4F8F4F9F4F16C0882311F096E911C0DD
:1017A000772321F09EE8872F762F05C0662371F0FE
:1017B00096E8862F70E060E02AF09A95660F771F12
:1017C000881FDAF7880F9695879597F90895990FEE
:1017D0000008550FAA0BE0E8FEEF16161706E807FB
:1017E000F907C0F012161306E407F50798F0621B1C
:1017F000730B840B950B39F40A2661F0232B242BF1
:10180000252B21F408950A2609F4A140A6958FEF0F
:10181000811D811D089597F99F6780E870E060E061
:1018200008959FEF80EC089500240A941616170679
:1018300018060906089500240A94121613061406C1
:1018400005060895092E0394000C11F4882352F024
:10185000BB0F40F4BF2B11F460FF04C06F5F7F4FDC
:101860008F4F9F4F089557FD9058440F551F59F0C3
:101870005F3F71F04795880F97FB991F61F09F3F7D
:1018800079F087950895121613061406551FF2CFA6
:101890004695F1DF08C0161617061806991FF1CFF6
:1018A00086957105610508940895E894BB2766271D
:1018B0007727CB0197F908950E94E70B08F48FEF83
:1018C00008950E94710C29ED3BE54EED5EE30C940A
:1018D000B90C16F00C94B00D0C94110C68940C9487
:1018E0000B0C0E943B0CA8F39923C1F3AEF3DF93DA
:1018F000CF931F930F93FF92C92FDD2788232AF0E0
:101900002197660F771F881FDAF720E030E040E864
:101910005FEB9FE3883920F0803E38F021968F7787
:101920000E94910AE8E6F0E004C00E94910AE5E90D
:10193000F0E00E94BE0D8B01BE01EC01FB2E6F5743
:1019400071097595771F880B990B0E94AC0B28E1E4
:1019500032E741E35FE30E94CC0CAF2D9801AE016A
:10196000FF900F911F91CF91DF910E94A80A0C94D4
:10197000220C0E94CC0C0C94220C0E94140C38F007
:101980000E941B0C20F0952311F00C940B0C0C946E
:10199000110C11240C94560C0E94330C70F3959F7B
:1019A000C1F3950F50E0551F629FF001729FBB2756
:1019B000F00DB11D639FAA27F00DB11DAA1F649FF2
:1019C0006627B00DA11D661F829F2227B00DA11DA5
:1019D000621F739FB00DA11D621F839FA00D611D2B
:1019E000221F749F3327A00D611D231F849F600D4C
:1019F000211D822F762F6A2F11249F5750409AF075
:101A0000F1F088234AF0EE0FFF1FBB1F661F771F00
:101A1000881F91505040A9F79E3F510580F00C94CB
:101A20000B0C0C94560C5F3FE4F3983ED4F3869570
:101A300077956795B795F795E7959F5FC1F7FE2B6B
:101A4000880F911D9695879597F90895FA01EE0FE5
:101A5000FF1F309621053105A1F16115710561F473
:101A60008038BFE39B0749F168949038810561F0A5
:101A70008038BFEF9B0741F099234AF5FF3FE1050E
:101A80003105210519F1E8940894E795D901AA23B5
:101A900029F4AB2FBE2FF85FD0F310C0FF5F70F4B6
:101AA000A695E0F7F73950F019F0FF3A38F49F7730
:101AB0009F930DD00F9007FC9058089546F00C941A
:101AC000110C60E070E080E89FE308954FE79F7796
:101AD0005F934F933F932F930E94710C2F913F91EF
:101AE0004F915F910E94B90C0C947E0D29F416F071
:101AF0000C940B0C0C94550C0C94110C0E943B0C88
:101B0000A8F39638A0F707F80F92E8942BE33AEA87
:101B100048EB5FE70E94CF0C0F920F920F924DB7E8
:101B20005EB70F920E94270EE2ECF0E00E94BE0D1D
:101B30004F915F91EF91FF91E595EE1FFF1F49F0E7
:101B4000FE57E0684427EE0F441FFA95E1F74195F0
:101B5000550B0E94F10D0F9007FE0C94E50D0895B2
:101B60009F3F31F0915020F4879577956795B79511
:101B7000880F911D9695879597F90895DF93CF93D8
:101B80001F930F93FF92EF92DF927B018C01689479
:101B900006C0DA2EEF010E94CC0CFE01E894A5915C
:101BA0002591359145915591A6F3EF010E94A80A20
:101BB000FE019701A801DA9469F7DF90EF90FF909A
:101BC0000F911F91CF91DF9108959B01AC0160E0CF
:101BD00070E080E89FE30C94020B0C940B0C0C94C7
:101BE000B00D0E943B0CD8F39923C9F3940F511DFB
:101BF000A3F39150504094F059F0882332F0660FCF
:101C0000771F881F91505040C1F79E3F51052CF718
:101C1000880F911D9695879597F908955F3FACF0D1
:101C2000983E9CF0BB27869577956795B79508F405
:101C3000B1609395C1F7BB0F58F711F460FFE8CF7F
:101C40006F5F7F4F8F4F9F4FE3CF0C94560CFA017D
:101C5000DC01AA0FBB1F9B01AC01BF5728F4222750
:101C600033274427507820C0B75190F4AB2F00247D
:101C7000469537952795011CA395D2F3002071F066
:101C8000220F331F441FB395DAF30ED00C94900A41
:101C900061307105A0E88A07B94630F49B01AC01B8
:101CA0006627772788279078309621F02083318324
:101CB0004283538308950F931F93CF93DF93823012
:101CC000910510F482E090E0E0915701F091580105
:101CD00020E030E0A0E0B0E0309719F14081518180
:101CE0000281138148175907C8F08417950769F4D2
:101CF000109731F012960C93129713961C9327C0ED
:101D0000009357011093580122C02115310519F095
:101D10004217530718F49A01BD01EF01DF01F801E2
:101D2000DBCF21153105F9F0281B390B24303105A3
:101D300080F48A819B816115710521F0FB019383F9
:101D4000828304C09093580180935701FE0132961C
:101D500044C0FE01E20FF31F819391932250310999
:101D6000398328833AC02091550130915601232BA5
:101D700041F42091160130911701309356012093C0
:101D8000550120911401309115012115310541F4BF
:101D90002DB73EB74091180150911901241B350B06
:101DA000E0915501F0915601E217F307A0F42E1BC4
:101DB0003F0B2817390778F0AC014E5F5F4F2417AF
:101DC000350748F04E0F5F1F509356014093550161
:101DD0008193919302C0E0E0F0E0CF01DF91CF91D9
:101DE0001F910F910895CF93DF93009709F481C05D
:101DF000FC01329713821282A0915701B0915801D1
:101E0000109781F420813181820F931F2091550119
:101E1000309156012817390751F5F0935601E09398
:101E2000550167C0ED0120E030E0CE17DF0740F438
:101E30004A815B819E0141155105F1F0EA01F5CF20
:101E4000D383C28340815181840F951FC817D9075E
:101E500059F488819981840F951F0296918380831C
:101E60008A819B81938382832115310529F4F09324
:101E70005801E09357013DC0E901FB83EA83499192
:101E80005991C40FD51FEC17FD0761F48081918132
:101E9000840F951F0296E90199838883828193813B
:101EA0009B838A83E0E0F0E012968D919C911397DA
:101EB000009719F0FD01DC01F7CF8D919C911197EE
:101EC0009D012E5F3F4F820F931F2091550130914E
:101ED00056012817390769F4309729F410925801F0
:101EE0001092570102C013821282B0935601A09340
:101EF0005501DF91CF91089581E090E0F8940C9422
:061F0000810FF894FFCFF1
:101F06000000040C0818103020248202030141400E
:101F1600C08001FF00005901800000000000FA01A6
:00000001FF
